{
  "contractName": "CoffeeSupplyChain",
  "abi": [
    {
      "inputs": [],
      "stateMutability": "nonpayable",
      "type": "constructor"
    },
    {
      "anonymous": false,
      "inputs": [
        {
          "indexed": false,
          "internalType": "uint256",
          "name": "id",
          "type": "uint256"
        },
        {
          "indexed": false,
          "internalType": "string",
          "name": "origin",
          "type": "string"
        },
        {
          "indexed": false,
          "internalType": "uint256",
          "name": "timestamp",
          "type": "uint256"
        }
      ],
      "name": "BatchCreated",
      "type": "event"
    },
    {
      "anonymous": false,
      "inputs": [
        {
          "indexed": false,
          "internalType": "uint256",
          "name": "id",
          "type": "uint256"
        },
        {
          "indexed": false,
          "internalType": "string",
          "name": "distributor",
          "type": "string"
        },
        {
          "indexed": false,
          "internalType": "uint256",
          "name": "timestamp",
          "type": "uint256"
        }
      ],
      "name": "Distributed",
      "type": "event"
    },
    {
      "anonymous": false,
      "inputs": [
        {
          "indexed": false,
          "internalType": "uint256",
          "name": "id",
          "type": "uint256"
        },
        {
          "indexed": false,
          "internalType": "uint256",
          "name": "inventory",
          "type": "uint256"
        },
        {
          "indexed": false,
          "internalType": "uint256",
          "name": "timestamp",
          "type": "uint256"
        }
      ],
      "name": "InventoryUpdated",
      "type": "event"
    },
    {
      "anonymous": false,
      "inputs": [
        {
          "indexed": false,
          "internalType": "uint256",
          "name": "id",
          "type": "uint256"
        },
        {
          "indexed": false,
          "internalType": "enum CoffeeSupplyChain.Stage",
          "name": "stage",
          "type": "uint8"
        },
        {
          "indexed": false,
          "internalType": "uint256",
          "name": "timestamp",
          "type": "uint256"
        }
      ],
      "name": "StageUpdated",
      "type": "event"
    },
    {
      "inputs": [],
      "name": "batchCount",
      "outputs": [
        {
          "internalType": "uint256",
          "name": "",
          "type": "uint256"
        }
      ],
      "stateMutability": "view",
      "type": "function",
      "constant": true
    },
    {
      "inputs": [
        {
          "internalType": "uint256",
          "name": "",
          "type": "uint256"
        }
      ],
      "name": "batches",
      "outputs": [
        {
          "internalType": "uint256",
          "name": "id",
          "type": "uint256"
        },
        {
          "internalType": "string",
          "name": "origin",
          "type": "string"
        },
        {
          "internalType": "uint256",
          "name": "timestamp",
          "type": "uint256"
        },
        {
          "internalType": "enum CoffeeSupplyChain.Stage",
          "name": "stage",
          "type": "uint8"
        },
        {
          "internalType": "uint256",
          "name": "inventory",
          "type": "uint256"
        },
        {
          "internalType": "string",
          "name": "distributor",
          "type": "string"
        }
      ],
      "stateMutability": "view",
      "type": "function",
      "constant": true
    },
    {
      "inputs": [],
      "name": "owner",
      "outputs": [
        {
          "internalType": "address",
          "name": "",
          "type": "address"
        }
      ],
      "stateMutability": "view",
      "type": "function",
      "constant": true
    },
    {
      "inputs": [
        {
          "internalType": "string",
          "name": "_origin",
          "type": "string"
        },
        {
          "internalType": "uint256",
          "name": "_initialInventory",
          "type": "uint256"
        }
      ],
      "name": "createBatch",
      "outputs": [],
      "stateMutability": "nonpayable",
      "type": "function"
    },
    {
      "inputs": [
        {
          "internalType": "uint256",
          "name": "_batchId",
          "type": "uint256"
        },
        {
          "internalType": "enum CoffeeSupplyChain.Stage",
          "name": "_stage",
          "type": "uint8"
        }
      ],
      "name": "updateStage",
      "outputs": [],
      "stateMutability": "nonpayable",
      "type": "function"
    },
    {
      "inputs": [
        {
          "internalType": "uint256",
          "name": "_batchId",
          "type": "uint256"
        },
        {
          "internalType": "uint256",
          "name": "_inventory",
          "type": "uint256"
        }
      ],
      "name": "updateInventory",
      "outputs": [],
      "stateMutability": "nonpayable",
      "type": "function"
    },
    {
      "inputs": [
        {
          "internalType": "uint256",
          "name": "_batchId",
          "type": "uint256"
        },
        {
          "internalType": "string",
          "name": "_distributor",
          "type": "string"
        }
      ],
      "name": "distributeBatch",
      "outputs": [],
      "stateMutability": "nonpayable",
      "type": "function"
    },
    {
      "inputs": [
        {
          "internalType": "uint256",
          "name": "_batchId",
          "type": "uint256"
        }
      ],
      "name": "getBatch",
      "outputs": [
        {
          "components": [
            {
              "internalType": "uint256",
              "name": "id",
              "type": "uint256"
            },
            {
              "internalType": "string",
              "name": "origin",
              "type": "string"
            },
            {
              "internalType": "uint256",
              "name": "timestamp",
              "type": "uint256"
            },
            {
              "internalType": "enum CoffeeSupplyChain.Stage",
              "name": "stage",
              "type": "uint8"
            },
            {
              "internalType": "uint256",
              "name": "inventory",
              "type": "uint256"
            },
            {
              "internalType": "string",
              "name": "distributor",
              "type": "string"
            }
          ],
          "internalType": "struct CoffeeSupplyChain.Batch",
          "name": "",
          "type": "tuple"
        }
      ],
      "stateMutability": "view",
      "type": "function",
      "constant": true
    }
  ],
  "bytecode": "0x608060405234801561001057600080fd5b50336000806101000a81548173ffffffffffffffffffffffffffffffffffffffff021916908373ffffffffffffffffffffffffffffffffffffffff160217905550611880806100606000396000f3fe608060405234801561001057600080fd5b50600436106100885760003560e01c80638da5cb5b1161005b5780638da5cb5b14610113578063b32c4d8d14610131578063e116230614610166578063f405c96b1461018257610088565b806306f130561461008d57806339d9e8d8146100ab578063522547a8146100c75780635ac44282146100e3575b600080fd5b61009561019e565b6040516100a29190611460565b60405180910390f35b6100c560048036038101906100c09190611040565b6101a4565b005b6100e160048036038101906100dc9190611094565b61046c565b005b6100fd60048036038101906100f89190610fdb565b6105a5565b60405161010a919061143e565b60405180910390f35b61011b6107ec565b6040516101289190611383565b60405180910390f35b61014b60048036038101906101469190610fdb565b610810565b60405161015d969594939291906114f0565b60405180910390f35b610180600480360381019061017b9190610f87565b610969565b005b61019c60048036038101906101979190611004565b610b8d565b005b60025481565b60008054906101000a900473ffffffffffffffffffffffffffffffffffffffff1673ffffffffffffffffffffffffffffffffffffffff163373ffffffffffffffffffffffffffffffffffffffff1614610232576040517f08c379a00000000000000000000000000000000000000000000000000000000081526004016102299061141e565b60405180910390fd5b60025482111580156102445750600082115b610283576040517f08c379a000000000000000000000000000000000000000000000000000000000815260040161027a906113fe565b60405180910390fd5b600360048111156102bd577f4e487b7100000000000000000000000000000000000000000000000000000000600052602160045260246000fd5b6001600084815260200190815260200160002060030160009054906101000a900460ff166004811115610319577f4e487b7100000000000000000000000000000000000000000000000000000000600052602160045260246000fd5b14610359576040517f08c379a00000000000000000000000000000000000000000000000000000000081526004016103509061139e565b60405180910390fd5b600081511161039d576040517f08c379a0000000000000000000000000000000000000000000000000000000008152600401610394906113de565b60405180910390fd5b60046001600084815260200190815260200160002060030160006101000a81548160ff021916908360048111156103fd577f4e487b7100000000000000000000000000000000000000000000000000000000600052602160045260246000fd5b02179055508060016000848152602001908152602001600020600501908051906020019061042c929190610de4565b507f367bb03b00da37601f1e8ec333ede84b9c19a1cac6c328588d9c7e7e2aaa9f5f828242604051610460939291906114b2565b60405180910390a15050565b60008054906101000a900473ffffffffffffffffffffffffffffffffffffffff1673ffffffffffffffffffffffffffffffffffffffff163373ffffffffffffffffffffffffffffffffffffffff16146104fa576040517f08c379a00000000000000000000000000000000000000000000000000000000081526004016104f19061141e565b60405180910390fd5b600254821115801561050c5750600082115b61054b576040517f08c379a0000000000000000000000000000000000000000000000000000000008152600401610542906113fe565b60405180910390fd5b8060016000848152602001908152602001600020600401819055507f4dffc6eb66f0a07602619896868c2fa96801481a286d2507a3be65c144b596278282426040516105999392919061155f565b60405180910390a15050565b6105ad610e6a565b60025482111580156105bf5750600082115b6105fe576040517f08c379a00000000000000000000000000000000000000000000000000000000081526004016105f5906113fe565b60405180910390fd5b600160008381526020019081526020016000206040518060c001604052908160008201548152602001600182018054610636906116c7565b80601f0160208091040260200160405190810160405280929190818152602001828054610662906116c7565b80156106af5780601f10610684576101008083540402835291602001916106af565b820191906000526020600020905b81548152906001019060200180831161069257829003601f168201915b50505050508152602001600282015481526020016003820160009054906101000a900460ff16600481111561070d577f4e487b7100000000000000000000000000000000000000000000000000000000600052602160045260246000fd5b6004811115610745577f4e487b7100000000000000000000000000000000000000000000000000000000600052602160045260246000fd5b815260200160048201548152602001600582018054610763906116c7565b80601f016020809104026020016040519081016040528092919081815260200182805461078f906116c7565b80156107dc5780601f106107b1576101008083540402835291602001916107dc565b820191906000526020600020905b8154815290600101906020018083116107bf57829003601f168201915b5050505050815250509050919050565b60008054906101000a900473ffffffffffffffffffffffffffffffffffffffff1681565b6001602052806000526040600020600091509050806000015490806001018054610839906116c7565b80601f0160208091040260200160405190810160405280929190818152602001828054610865906116c7565b80156108b25780601f10610887576101008083540402835291602001916108b2565b820191906000526020600020905b81548152906001019060200180831161089557829003601f168201915b5050505050908060020154908060030160009054906101000a900460ff16908060040154908060050180546108e6906116c7565b80601f0160208091040260200160405190810160405280929190818152602001828054610912906116c7565b801561095f5780601f106109345761010080835404028352916020019161095f565b820191906000526020600020905b81548152906001019060200180831161094257829003601f168201915b5050505050905086565b60008054906101000a900473ffffffffffffffffffffffffffffffffffffffff1673ffffffffffffffffffffffffffffffffffffffff163373ffffffffffffffffffffffffffffffffffffffff16146109f7576040517f08c379a00000000000000000000000000000000000000000000000000000000081526004016109ee9061141e565b60405180910390fd5b60026000815480929190610a0a906116f9565b91905055506040518060c00160405280600254815260200183815260200142815260200160006004811115610a68577f4e487b7100000000000000000000000000000000000000000000000000000000600052602160045260246000fd5b815260200182815260200160405180602001604052806000815250815250600160006002548152602001908152602001600020600082015181600001556020820151816001019080519060200190610ac1929190610de4565b506040820151816002015560608201518160030160006101000a81548160ff02191690836004811115610b1d577f4e487b7100000000000000000000000000000000000000000000000000000000600052602160045260246000fd5b02179055506080820151816004015560a0820151816005019080519060200190610b48929190610de4565b509050507f58c168780de5fc719a1e7a85c7eca394e664c0e74b7c9ebc621f0b093112d04b6002548342604051610b81939291906114b2565b60405180910390a15050565b60008054906101000a900473ffffffffffffffffffffffffffffffffffffffff1673ffffffffffffffffffffffffffffffffffffffff163373ffffffffffffffffffffffffffffffffffffffff1614610c1b576040517f08c379a0000000000000000000000000000000000000000000000000000000008152600401610c129061141e565b60405180910390fd5b6002548211158015610c2d5750600082115b610c6c576040517f08c379a0000000000000000000000000000000000000000000000000000000008152600401610c63906113fe565b60405180910390fd5b6001600083815260200190815260200160002060030160009054906101000a900460ff166004811115610cc8577f4e487b7100000000000000000000000000000000000000000000000000000000600052602160045260246000fd5b816004811115610d01577f4e487b7100000000000000000000000000000000000000000000000000000000600052602160045260246000fd5b11610d41576040517f08c379a0000000000000000000000000000000000000000000000000000000008152600401610d38906113be565b60405180910390fd5b806001600084815260200190815260200160002060030160006101000a81548160ff02191690836004811115610da0577f4e487b7100000000000000000000000000000000000000000000000000000000600052602160045260246000fd5b02179055507f1c9f99abdc4ff0dc1efc16917683317ce1f3ae802fd4c0a9f03c475b778e3890828242604051610dd89392919061147b565b60405180910390a15050565b828054610df0906116c7565b90600052602060002090601f016020900481019282610e125760008555610e59565b82601f10610e2b57805160ff1916838001178555610e59565b82800160010185558215610e59579182015b82811115610e58578251825591602001919060010190610e3d565b5b509050610e669190610ed8565b5090565b6040518060c0016040528060008152602001606081526020016000815260200160006004811115610ec4577f4e487b7100000000000000000000000000000000000000000000000000000000600052602160045260246000fd5b815260200160008152602001606081525090565b5b80821115610ef1576000816000905550600101610ed9565b5090565b6000610f08610f03846115c7565b611596565b905082815260208101848484011115610f2057600080fd5b610f2b848285611685565b509392505050565b600081359050610f4281611823565b92915050565b600082601f830112610f5957600080fd5b8135610f69848260208601610ef5565b91505092915050565b600081359050610f8181611833565b92915050565b60008060408385031215610f9a57600080fd5b600083013567ffffffffffffffff811115610fb457600080fd5b610fc085828601610f48565b9250506020610fd185828601610f72565b9150509250929050565b600060208284031215610fed57600080fd5b6000610ffb84828501610f72565b91505092915050565b6000806040838503121561101757600080fd5b600061102585828601610f72565b925050602061103685828601610f33565b9150509250929050565b6000806040838503121561105357600080fd5b600061106185828601610f72565b925050602083013567ffffffffffffffff81111561107e57600080fd5b61108a85828601610f48565b9150509250929050565b600080604083850312156110a757600080fd5b60006110b585828601610f72565b92505060206110c685828601610f72565b9150509250929050565b6110d981611624565b82525050565b6110e881611673565b82525050565b6110f781611673565b82525050565b6000611108826115f7565b6111128185611602565b9350611122818560208601611694565b61112b816117fe565b840191505092915050565b6000611141826115f7565b61114b8185611613565b935061115b818560208601611694565b611164816117fe565b840191505092915050565b600061117c602083611613565b91507f4261746368206e6f7420726561647920666f7220646973747269627574696f6e6000830152602082019050919050565b60006111bc601383611613565b91507f43616e6e6f7420726576657274207374616765000000000000000000000000006000830152602082019050919050565b60006111fc601c83611613565b91507f4469737472696275746f72206d7573742062652070726f7669646564000000006000830152602082019050919050565b600061123c601083611613565b91507f496e76616c6964206261746368204944000000000000000000000000000000006000830152602082019050919050565b600061127c602283611613565b91507f4f6e6c79206f776e65722063616e20706572666f726d2074686973206163746960008301527f6f6e0000000000000000000000000000000000000000000000000000000000006020830152604082019050919050565b600060c0830160008301516112ed6000860182611365565b506020830151848203602086015261130582826110fd565b915050604083015161131a6040860182611365565b50606083015161132d60608601826110df565b5060808301516113406080860182611365565b5060a083015184820360a086015261135882826110fd565b9150508091505092915050565b61136e81611669565b82525050565b61137d81611669565b82525050565b600060208201905061139860008301846110d0565b92915050565b600060208201905081810360008301526113b78161116f565b9050919050565b600060208201905081810360008301526113d7816111af565b9050919050565b600060208201905081810360008301526113f7816111ef565b9050919050565b600060208201905081810360008301526114178161122f565b9050919050565b600060208201905081810360008301526114378161126f565b9050919050565b6000602082019050818103600083015261145881846112d5565b905092915050565b60006020820190506114756000830184611374565b92915050565b60006060820190506114906000830186611374565b61149d60208301856110ee565b6114aa6040830184611374565b949350505050565b60006060820190506114c76000830186611374565b81810360208301526114d98185611136565b90506114e86040830184611374565b949350505050565b600060c0820190506115056000830189611374565b81810360208301526115178188611136565b90506115266040830187611374565b61153360608301866110ee565b6115406080830185611374565b81810360a08301526115528184611136565b9050979650505050505050565b60006060820190506115746000830186611374565b6115816020830185611374565b61158e6040830184611374565b949350505050565b6000604051905081810181811067ffffffffffffffff821117156115bd576115bc6117cf565b5b8060405250919050565b600067ffffffffffffffff8211156115e2576115e16117cf565b5b601f19601f8301169050602081019050919050565b600081519050919050565b600082825260208201905092915050565b600082825260208201905092915050565b600061162f82611649565b9050919050565b60008190506116448261180f565b919050565b600073ffffffffffffffffffffffffffffffffffffffff82169050919050565b6000819050919050565b600061167e82611636565b9050919050565b82818337600083830152505050565b60005b838110156116b2578082015181840152602081019050611697565b838111156116c1576000848401525b50505050565b600060028204905060018216806116df57607f821691505b602082108114156116f3576116f26117a0565b5b50919050565b600061170482611669565b91507fffffffffffffffffffffffffffffffffffffffffffffffffffffffffffffffff82141561173757611736611742565b5b600182019050919050565b7f4e487b7100000000000000000000000000000000000000000000000000000000600052601160045260246000fd5b7f4e487b7100000000000000000000000000000000000000000000000000000000600052602160045260246000fd5b7f4e487b7100000000000000000000000000000000000000000000000000000000600052602260045260246000fd5b7f4e487b7100000000000000000000000000000000000000000000000000000000600052604160045260246000fd5b6000601f19601f8301169050919050565b600581106118205761181f611771565b5b50565b6005811061183057600080fd5b50565b61183c81611669565b811461184757600080fd5b5056fea26469706673582212209c4424f69a2d4b09c2d2fb1a460d2c74d7bf83153c36ef9bf33eac972e3f152964736f6c63430008000033",
  "immutableReferences": {},
  "source": "// SPDX-License-Identifier: MIT\r\npragma solidity ^0.8.0;\r\n\r\ncontract CoffeeSupplyChain {\r\n    address public owner;\r\n\r\n    enum Stage { Created, Roasted, Ground, Packaged, Distributed }\r\n\r\n    struct Batch {\r\n        uint id;\r\n        string origin;\r\n        uint timestamp;\r\n        Stage stage;\r\n        uint inventory;\r\n        string distributor;\r\n    }\r\n\r\n    mapping(uint => Batch) public batches;\r\n    uint public batchCount;\r\n\r\n    event BatchCreated(uint id, string origin, uint timestamp);\r\n    event StageUpdated(uint id, Stage stage, uint timestamp);\r\n    event InventoryUpdated(uint id, uint inventory, uint timestamp);\r\n    event Distributed(uint id, string distributor, uint timestamp);\r\n\r\n    constructor() {\r\n        owner = msg.sender;\r\n    }\r\n\r\n    modifier onlyOwner() {\r\n        require(msg.sender == owner, \"Only owner can perform this action\");\r\n        _;\r\n    }\r\n\r\n    function createBatch(string memory _origin, uint _initialInventory) public onlyOwner {\r\n        batchCount++;\r\n        batches[batchCount] = Batch(batchCount, _origin, block.timestamp, Stage.Created, _initialInventory, \"\");\r\n        emit BatchCreated(batchCount, _origin, block.timestamp);\r\n    }\r\n\r\n    function updateStage(uint _batchId, Stage _stage) public onlyOwner {\r\n        require(_batchId <= batchCount && _batchId > 0, \"Invalid batch ID\");\r\n        require(uint(_stage) > uint(batches[_batchId].stage), \"Cannot revert stage\");\r\n        batches[_batchId].stage = _stage;\r\n        emit StageUpdated(_batchId, _stage, block.timestamp);\r\n    }\r\n\r\n    function updateInventory(uint _batchId, uint _inventory) public onlyOwner {\r\n        require(_batchId <= batchCount && _batchId > 0, \"Invalid batch ID\");\r\n        batches[_batchId].inventory = _inventory;\r\n        emit InventoryUpdated(_batchId, _inventory, block.timestamp);\r\n    }\r\n\r\n    function distributeBatch(uint _batchId, string memory _distributor) public onlyOwner {\r\n        require(_batchId <= batchCount && _batchId > 0, \"Invalid batch ID\");\r\n        require(batches[_batchId].stage == Stage.Packaged, \"Batch not ready for distribution\");\r\n        require(bytes(_distributor).length > 0, \"Distributor must be provided\");\r\n\r\n        batches[_batchId].stage = Stage.Distributed;\r\n        batches[_batchId].distributor = _distributor;\r\n        emit Distributed(_batchId, _distributor, block.timestamp);\r\n    }\r\n\r\n    function getBatch(uint _batchId) public view returns (Batch memory) {\r\n        require(_batchId <= batchCount && _batchId > 0, \"Invalid batch ID\");\r\n        return batches[_batchId];\r\n    }\r\n}\r\n",
  "sourcePath": "C:\\Users\\HP\\Downloads\\coffee\\Coffee-Supply-Blockchain\\contracts\\CoffeeSupplyChain.sol",
  "compiler": {
    "name": "solc",
    "version": "0.8.0+commit.c7dfd78e.Emscripten.clang"
  },
  "schemaVersion": "3.4.16",
  "updatedAt": "2025-04-28T21:14:33.349Z",
  "networkType": "ethereum",
  "devdoc": {
    "kind": "dev",
    "methods": {},
    "version": 1
  },
  "userdoc": {
    "kind": "user",
    "methods": {},
    "version": 1
  }
}