{
  "contractName": "CoffeeSupplyChain",
  "abi": [
    {
      "inputs": [],
      "stateMutability": "nonpayable",
      "type": "constructor"
    },
    {
      "anonymous": false,
      "inputs": [
        {
          "indexed": false,
          "internalType": "uint256",
          "name": "id",
          "type": "uint256"
        },
        {
          "indexed": false,
          "internalType": "string",
          "name": "origin",
          "type": "string"
        },
        {
          "indexed": false,
          "internalType": "uint256",
          "name": "timestamp",
          "type": "uint256"
        }
      ],
      "name": "BatchCreated",
      "type": "event"
    },
    {
      "anonymous": false,
      "inputs": [
        {
          "indexed": false,
          "internalType": "uint256",
          "name": "id",
          "type": "uint256"
        },
        {
          "indexed": false,
          "internalType": "string",
          "name": "distributor",
          "type": "string"
        },
        {
          "indexed": false,
          "internalType": "uint256",
          "name": "timestamp",
          "type": "uint256"
        }
      ],
      "name": "Distributed",
      "type": "event"
    },
    {
      "anonymous": false,
      "inputs": [
        {
          "indexed": false,
          "internalType": "uint256",
          "name": "id",
          "type": "uint256"
        },
        {
          "indexed": false,
          "internalType": "uint256",
          "name": "inventory",
          "type": "uint256"
        },
        {
          "indexed": false,
          "internalType": "uint256",
          "name": "timestamp",
          "type": "uint256"
        }
      ],
      "name": "InventoryUpdated",
      "type": "event"
    },
    {
      "anonymous": false,
      "inputs": [
        {
          "indexed": false,
          "internalType": "uint256",
          "name": "id",
          "type": "uint256"
        },
        {
          "indexed": false,
          "internalType": "enum CoffeeSupplyChain.Stage",
          "name": "stage",
          "type": "uint8"
        },
        {
          "indexed": false,
          "internalType": "uint256",
          "name": "timestamp",
          "type": "uint256"
        }
      ],
      "name": "StageUpdated",
      "type": "event"
    },
    {
      "inputs": [],
      "name": "batchCount",
      "outputs": [
        {
          "internalType": "uint256",
          "name": "",
          "type": "uint256"
        }
      ],
      "stateMutability": "view",
      "type": "function",
      "constant": true
    },
    {
      "inputs": [
        {
          "internalType": "uint256",
          "name": "",
          "type": "uint256"
        }
      ],
      "name": "batches",
      "outputs": [
        {
          "internalType": "uint256",
          "name": "id",
          "type": "uint256"
        },
        {
          "internalType": "string",
          "name": "origin",
          "type": "string"
        },
        {
          "internalType": "uint256",
          "name": "timestamp",
          "type": "uint256"
        },
        {
          "internalType": "enum CoffeeSupplyChain.Stage",
          "name": "stage",
          "type": "uint8"
        },
        {
          "internalType": "uint256",
          "name": "inventory",
          "type": "uint256"
        },
        {
          "internalType": "string",
          "name": "distributor",
          "type": "string"
        }
      ],
      "stateMutability": "view",
      "type": "function",
      "constant": true
    },
    {
      "inputs": [],
      "name": "owner",
      "outputs": [
        {
          "internalType": "address",
          "name": "",
          "type": "address"
        }
      ],
      "stateMutability": "view",
      "type": "function",
      "constant": true
    },
    {
      "inputs": [
        {
          "internalType": "string",
          "name": "_origin",
          "type": "string"
        },
        {
          "internalType": "uint256",
          "name": "_initialInventory",
          "type": "uint256"
        }
      ],
      "name": "createBatch",
      "outputs": [],
      "stateMutability": "nonpayable",
      "type": "function"
    },
    {
      "inputs": [
        {
          "internalType": "uint256",
          "name": "_batchId",
          "type": "uint256"
        },
        {
          "internalType": "enum CoffeeSupplyChain.Stage",
          "name": "_stage",
          "type": "uint8"
        }
      ],
      "name": "updateStage",
      "outputs": [],
      "stateMutability": "nonpayable",
      "type": "function"
    },
    {
      "inputs": [
        {
          "internalType": "uint256",
          "name": "_batchId",
          "type": "uint256"
        },
        {
          "internalType": "uint256",
          "name": "_inventory",
          "type": "uint256"
        }
      ],
      "name": "updateInventory",
      "outputs": [],
      "stateMutability": "nonpayable",
      "type": "function"
    },
    {
      "inputs": [
        {
          "internalType": "uint256",
          "name": "_batchId",
          "type": "uint256"
        },
        {
          "internalType": "string",
          "name": "_distributor",
          "type": "string"
        }
      ],
      "name": "distributeBatch",
      "outputs": [],
      "stateMutability": "nonpayable",
      "type": "function"
    },
    {
      "inputs": [
        {
          "internalType": "uint256",
          "name": "_batchId",
          "type": "uint256"
        }
      ],
      "name": "getBatch",
      "outputs": [
        {
          "components": [
            {
              "internalType": "uint256",
              "name": "id",
              "type": "uint256"
            },
            {
              "internalType": "string",
              "name": "origin",
              "type": "string"
            },
            {
              "internalType": "uint256",
              "name": "timestamp",
              "type": "uint256"
            },
            {
              "internalType": "enum CoffeeSupplyChain.Stage",
              "name": "stage",
              "type": "uint8"
            },
            {
              "internalType": "uint256",
              "name": "inventory",
              "type": "uint256"
            },
            {
              "internalType": "string",
              "name": "distributor",
              "type": "string"
            }
          ],
          "internalType": "struct CoffeeSupplyChain.Batch",
          "name": "",
          "type": "tuple"
        }
      ],
      "stateMutability": "view",
      "type": "function",
      "constant": true
    }
  ],
  "bytecode": "0x608060405234801561001057600080fd5b50336000806101000a81548173ffffffffffffffffffffffffffffffffffffffff021916908373ffffffffffffffffffffffffffffffffffffffff1602179055506117dc806100606000396000f3fe608060405234801561001057600080fd5b50600436106100885760003560e01c80638da5cb5b1161005b5780638da5cb5b14610113578063b32c4d8d14610131578063e116230614610166578063f405c96b1461018257610088565b806306f130561461008d57806339d9e8d8146100ab578063522547a8146100c75780635ac44282146100e3575b600080fd5b61009561019e565b6040516100a291906113bc565b60405180910390f35b6100c560048036038101906100c09190610ffc565b6101a4565b005b6100e160048036038101906100dc9190611050565b610428565b005b6100fd60048036038101906100f89190610f97565b610561565b60405161010a919061139a565b60405180910390f35b61011b6107a8565b60405161012891906112ff565b60405180910390f35b61014b60048036038101906101469190610f97565b6107cc565b60405161015d9695949392919061144c565b60405180910390f35b610180600480360381019061017b9190610f43565b610925565b005b61019c60048036038101906101979190610fc0565b610b49565b005b60025481565b60008054906101000a900473ffffffffffffffffffffffffffffffffffffffff1673ffffffffffffffffffffffffffffffffffffffff163373ffffffffffffffffffffffffffffffffffffffff1614610232576040517f08c379a00000000000000000000000000000000000000000000000000000000081526004016102299061137a565b60405180910390fd5b60025482111580156102445750600082115b610283576040517f08c379a000000000000000000000000000000000000000000000000000000000815260040161027a9061135a565b60405180910390fd5b600360048111156102bd577f4e487b7100000000000000000000000000000000000000000000000000000000600052602160045260246000fd5b6001600084815260200190815260200160002060030160009054906101000a900460ff166004811115610319577f4e487b7100000000000000000000000000000000000000000000000000000000600052602160045260246000fd5b14610359576040517f08c379a00000000000000000000000000000000000000000000000000000000081526004016103509061131a565b60405180910390fd5b60046001600084815260200190815260200160002060030160006101000a81548160ff021916908360048111156103b9577f4e487b7100000000000000000000000000000000000000000000000000000000600052602160045260246000fd5b0217905550806001600084815260200190815260200160002060050190805190602001906103e8929190610da0565b507f367bb03b00da37601f1e8ec333ede84b9c19a1cac6c328588d9c7e7e2aaa9f5f82824260405161041c9392919061140e565b60405180910390a15050565b60008054906101000a900473ffffffffffffffffffffffffffffffffffffffff1673ffffffffffffffffffffffffffffffffffffffff163373ffffffffffffffffffffffffffffffffffffffff16146104b6576040517f08c379a00000000000000000000000000000000000000000000000000000000081526004016104ad9061137a565b60405180910390fd5b60025482111580156104c85750600082115b610507576040517f08c379a00000000000000000000000000000000000000000000000000000000081526004016104fe9061135a565b60405180910390fd5b8060016000848152602001908152602001600020600401819055507f4dffc6eb66f0a07602619896868c2fa96801481a286d2507a3be65c144b59627828242604051610555939291906114bb565b60405180910390a15050565b610569610e26565b600254821115801561057b5750600082115b6105ba576040517f08c379a00000000000000000000000000000000000000000000000000000000081526004016105b19061135a565b60405180910390fd5b600160008381526020019081526020016000206040518060c0016040529081600082015481526020016001820180546105f290611623565b80601f016020809104026020016040519081016040528092919081815260200182805461061e90611623565b801561066b5780601f106106405761010080835404028352916020019161066b565b820191906000526020600020905b81548152906001019060200180831161064e57829003601f168201915b50505050508152602001600282015481526020016003820160009054906101000a900460ff1660048111156106c9577f4e487b7100000000000000000000000000000000000000000000000000000000600052602160045260246000fd5b6004811115610701577f4e487b7100000000000000000000000000000000000000000000000000000000600052602160045260246000fd5b81526020016004820154815260200160058201805461071f90611623565b80601f016020809104026020016040519081016040528092919081815260200182805461074b90611623565b80156107985780601f1061076d57610100808354040283529160200191610798565b820191906000526020600020905b81548152906001019060200180831161077b57829003601f168201915b5050505050815250509050919050565b60008054906101000a900473ffffffffffffffffffffffffffffffffffffffff1681565b60016020528060005260406000206000915090508060000154908060010180546107f590611623565b80601f016020809104026020016040519081016040528092919081815260200182805461082190611623565b801561086e5780601f106108435761010080835404028352916020019161086e565b820191906000526020600020905b81548152906001019060200180831161085157829003601f168201915b5050505050908060020154908060030160009054906101000a900460ff16908060040154908060050180546108a290611623565b80601f01602080910402602001604051908101604052809291908181526020018280546108ce90611623565b801561091b5780601f106108f05761010080835404028352916020019161091b565b820191906000526020600020905b8154815290600101906020018083116108fe57829003601f168201915b5050505050905086565b60008054906101000a900473ffffffffffffffffffffffffffffffffffffffff1673ffffffffffffffffffffffffffffffffffffffff163373ffffffffffffffffffffffffffffffffffffffff16146109b3576040517f08c379a00000000000000000000000000000000000000000000000000000000081526004016109aa9061137a565b60405180910390fd5b600260008154809291906109c690611655565b91905055506040518060c00160405280600254815260200183815260200142815260200160006004811115610a24577f4e487b7100000000000000000000000000000000000000000000000000000000600052602160045260246000fd5b815260200182815260200160405180602001604052806000815250815250600160006002548152602001908152602001600020600082015181600001556020820151816001019080519060200190610a7d929190610da0565b506040820151816002015560608201518160030160006101000a81548160ff02191690836004811115610ad9577f4e487b7100000000000000000000000000000000000000000000000000000000600052602160045260246000fd5b02179055506080820151816004015560a0820151816005019080519060200190610b04929190610da0565b509050507f58c168780de5fc719a1e7a85c7eca394e664c0e74b7c9ebc621f0b093112d04b6002548342604051610b3d9392919061140e565b60405180910390a15050565b60008054906101000a900473ffffffffffffffffffffffffffffffffffffffff1673ffffffffffffffffffffffffffffffffffffffff163373ffffffffffffffffffffffffffffffffffffffff1614610bd7576040517f08c379a0000000000000000000000000000000000000000000000000000000008152600401610bce9061137a565b60405180910390fd5b6002548211158015610be95750600082115b610c28576040517f08c379a0000000000000000000000000000000000000000000000000000000008152600401610c1f9061135a565b60405180910390fd5b6001600083815260200190815260200160002060030160009054906101000a900460ff166004811115610c84577f4e487b7100000000000000000000000000000000000000000000000000000000600052602160045260246000fd5b816004811115610cbd577f4e487b7100000000000000000000000000000000000000000000000000000000600052602160045260246000fd5b11610cfd576040517f08c379a0000000000000000000000000000000000000000000000000000000008152600401610cf49061133a565b60405180910390fd5b806001600084815260200190815260200160002060030160006101000a81548160ff02191690836004811115610d5c577f4e487b7100000000000000000000000000000000000000000000000000000000600052602160045260246000fd5b02179055507f1c9f99abdc4ff0dc1efc16917683317ce1f3ae802fd4c0a9f03c475b778e3890828242604051610d94939291906113d7565b60405180910390a15050565b828054610dac90611623565b90600052602060002090601f016020900481019282610dce5760008555610e15565b82601f10610de757805160ff1916838001178555610e15565b82800160010185558215610e15579182015b82811115610e14578251825591602001919060010190610df9565b5b509050610e229190610e94565b5090565b6040518060c0016040528060008152602001606081526020016000815260200160006004811115610e80577f4e487b7100000000000000000000000000000000000000000000000000000000600052602160045260246000fd5b815260200160008152602001606081525090565b5b80821115610ead576000816000905550600101610e95565b5090565b6000610ec4610ebf84611523565b6114f2565b905082815260208101848484011115610edc57600080fd5b610ee78482856115e1565b509392505050565b600081359050610efe8161177f565b92915050565b600082601f830112610f1557600080fd5b8135610f25848260208601610eb1565b91505092915050565b600081359050610f3d8161178f565b92915050565b60008060408385031215610f5657600080fd5b600083013567ffffffffffffffff811115610f7057600080fd5b610f7c85828601610f04565b9250506020610f8d85828601610f2e565b9150509250929050565b600060208284031215610fa957600080fd5b6000610fb784828501610f2e565b91505092915050565b60008060408385031215610fd357600080fd5b6000610fe185828601610f2e565b9250506020610ff285828601610eef565b9150509250929050565b6000806040838503121561100f57600080fd5b600061101d85828601610f2e565b925050602083013567ffffffffffffffff81111561103a57600080fd5b61104685828601610f04565b9150509250929050565b6000806040838503121561106357600080fd5b600061107185828601610f2e565b925050602061108285828601610f2e565b9150509250929050565b61109581611580565b82525050565b6110a4816115cf565b82525050565b6110b3816115cf565b82525050565b60006110c482611553565b6110ce818561155e565b93506110de8185602086016115f0565b6110e78161175a565b840191505092915050565b60006110fd82611553565b611107818561156f565b93506111178185602086016115f0565b6111208161175a565b840191505092915050565b600061113860208361156f565b91507f4261746368206e6f7420726561647920666f7220646973747269627574696f6e6000830152602082019050919050565b600061117860138361156f565b91507f43616e6e6f7420726576657274207374616765000000000000000000000000006000830152602082019050919050565b60006111b860108361156f565b91507f496e76616c6964206261746368204944000000000000000000000000000000006000830152602082019050919050565b60006111f860228361156f565b91507f4f6e6c79206f776e65722063616e20706572666f726d2074686973206163746960008301527f6f6e0000000000000000000000000000000000000000000000000000000000006020830152604082019050919050565b600060c08301600083015161126960008601826112e1565b506020830151848203602086015261128182826110b9565b915050604083015161129660408601826112e1565b5060608301516112a9606086018261109b565b5060808301516112bc60808601826112e1565b5060a083015184820360a08601526112d482826110b9565b9150508091505092915050565b6112ea816115c5565b82525050565b6112f9816115c5565b82525050565b6000602082019050611314600083018461108c565b92915050565b600060208201905081810360008301526113338161112b565b9050919050565b600060208201905081810360008301526113538161116b565b9050919050565b60006020820190508181036000830152611373816111ab565b9050919050565b60006020820190508181036000830152611393816111eb565b9050919050565b600060208201905081810360008301526113b48184611251565b905092915050565b60006020820190506113d160008301846112f0565b92915050565b60006060820190506113ec60008301866112f0565b6113f960208301856110aa565b61140660408301846112f0565b949350505050565b600060608201905061142360008301866112f0565b818103602083015261143581856110f2565b905061144460408301846112f0565b949350505050565b600060c08201905061146160008301896112f0565b818103602083015261147381886110f2565b905061148260408301876112f0565b61148f60608301866110aa565b61149c60808301856112f0565b81810360a08301526114ae81846110f2565b9050979650505050505050565b60006060820190506114d060008301866112f0565b6114dd60208301856112f0565b6114ea60408301846112f0565b949350505050565b6000604051905081810181811067ffffffffffffffff821117156115195761151861172b565b5b8060405250919050565b600067ffffffffffffffff82111561153e5761153d61172b565b5b601f19601f8301169050602081019050919050565b600081519050919050565b600082825260208201905092915050565b600082825260208201905092915050565b600061158b826115a5565b9050919050565b60008190506115a08261176b565b919050565b600073ffffffffffffffffffffffffffffffffffffffff82169050919050565b6000819050919050565b60006115da82611592565b9050919050565b82818337600083830152505050565b60005b8381101561160e5780820151818401526020810190506115f3565b8381111561161d576000848401525b50505050565b6000600282049050600182168061163b57607f821691505b6020821081141561164f5761164e6116fc565b5b50919050565b6000611660826115c5565b91507fffffffffffffffffffffffffffffffffffffffffffffffffffffffffffffffff8214156116935761169261169e565b5b600182019050919050565b7f4e487b7100000000000000000000000000000000000000000000000000000000600052601160045260246000fd5b7f4e487b7100000000000000000000000000000000000000000000000000000000600052602160045260246000fd5b7f4e487b7100000000000000000000000000000000000000000000000000000000600052602260045260246000fd5b7f4e487b7100000000000000000000000000000000000000000000000000000000600052604160045260246000fd5b6000601f19601f8301169050919050565b6005811061177c5761177b6116cd565b5b50565b6005811061178c57600080fd5b50565b611798816115c5565b81146117a357600080fd5b5056fea2646970667358221220a52309a0f35bad32eddc61809d84cec8ba84f6ea9078cfd2dd4d830498f8c8d664736f6c63430008000033",
  "immutableReferences": {},
  "source": "// SPDX-License-Identifier: MIT\npragma solidity ^0.8.0;\n\ncontract CoffeeSupplyChain {\n    address public owner;\n\n    enum Stage { Created, Roasted, Ground, Packaged, Distributed }\n\n    struct Batch {\n        uint id;\n        string origin;\n        uint timestamp;\n        Stage stage;\n        uint inventory;\n        string distributor;\n    }\n\n    mapping(uint => Batch) public batches;\n    uint public batchCount;\n\n    event BatchCreated(uint id, string origin, uint timestamp);\n    event StageUpdated(uint id, Stage stage, uint timestamp);\n    event InventoryUpdated(uint id, uint inventory, uint timestamp);\n    event Distributed(uint id, string distributor, uint timestamp);\n\n    constructor() {\n        owner = msg.sender;\n    }\n\n    modifier onlyOwner() {\n        require(msg.sender == owner, \"Only owner can perform this action\");\n        _;\n    }\n\n    function createBatch(string memory _origin, uint _initialInventory) public onlyOwner {\n        batchCount++;\n        batches[batchCount] = Batch(batchCount, _origin, block.timestamp, Stage.Created, _initialInventory, \"\");\n        emit BatchCreated(batchCount, _origin, block.timestamp);\n    }\n\n    function updateStage(uint _batchId, Stage _stage) public onlyOwner {\n        require(_batchId <= batchCount && _batchId > 0, \"Invalid batch ID\");\n        require(uint(_stage) > uint(batches[_batchId].stage), \"Cannot revert stage\");\n        batches[_batchId].stage = _stage;\n        emit StageUpdated(_batchId, _stage, block.timestamp);\n    }\n\n    function updateInventory(uint _batchId, uint _inventory) public onlyOwner {\n        require(_batchId <= batchCount && _batchId > 0, \"Invalid batch ID\");\n        batches[_batchId].inventory = _inventory;\n        emit InventoryUpdated(_batchId, _inventory, block.timestamp);\n    }\n\n    function distributeBatch(uint _batchId, string memory _distributor) public onlyOwner {\n        require(_batchId <= batchCount && _batchId > 0, \"Invalid batch ID\");\n        require(batches[_batchId].stage == Stage.Packaged, \"Batch not ready for distribution\");\n        batches[_batchId].stage = Stage.Distributed;\n        batches[_batchId].distributor = _distributor;\n        emit Distributed(_batchId, _distributor, block.timestamp);\n    }\n\n    function getBatch(uint _batchId) public view returns (Batch memory) {\n        require(_batchId <= batchCount && _batchId > 0, \"Invalid batch ID\");\n        return batches[_batchId];\n    }\n}",
  "sourcePath": "/home/angood/coffee-blockchain/contracts/CoffeeSupplyChain.sol",
  "compiler": {
    "name": "solc",
    "version": "0.8.0+commit.c7dfd78e.Emscripten.clang"
  },
  "schemaVersion": "3.4.16",
  "updatedAt": "2025-04-27T11:21:07.362Z",
  "networkType": "ethereum",
  "devdoc": {
    "kind": "dev",
    "methods": {},
    "version": 1
  },
  "userdoc": {
    "kind": "user",
    "methods": {},
    "version": 1
  }
}